{
  "_format": "hh-sol-artifact-1",
  "contractName": "MemeCoinGG",
  "sourceName": "contracts/GGeeseFactory.sol",
  "abi": [
    {
      "inputs": [
        {
          "internalType": "string",
          "name": "name",
          "type": "string"
        },
        {
          "internalType": "string",
          "name": "symbol",
          "type": "string"
        },
        {
          "internalType": "uint256",
          "name": "maxSupply",
          "type": "uint256"
        },
        {
          "internalType": "address",
          "name": "recipient_tax_tokens",
          "type": "address"
        },
        {
          "internalType": "address",
          "name": "recipient_tokens",
          "type": "address"
        },
        {
          "internalType": "uint256",
          "name": "BasetaxRate",
          "type": "uint256"
        },
        {
          "internalType": "uint256",
          "name": "protectMinutes",
          "type": "uint256"
        },
        {
          "internalType": "address",
          "name": "treasury",
          "type": "address"
        },
        {
          "internalType": "address",
          "name": "routerwhitelist",
          "type": "address"
        },
        {
          "internalType": "address",
          "name": "algoFeeAddress",
          "type": "address"
        },
        {
          "internalType": "address",
          "name": "timeFrameAddress",
          "type": "address"
        }
      ],
      "stateMutability": "nonpayable",
      "type": "constructor"
    },
    {
      "anonymous": false,
      "inputs": [
        {
          "indexed": true,
          "internalType": "address",
          "name": "owner",
          "type": "address"
        },
        {
          "indexed": true,
          "internalType": "address",
          "name": "spender",
          "type": "address"
        },
        {
          "indexed": false,
          "internalType": "uint256",
          "name": "value",
          "type": "uint256"
        }
      ],
      "name": "Approval",
      "type": "event"
    },
    {
      "anonymous": false,
      "inputs": [
        {
          "indexed": true,
          "internalType": "address",
          "name": "previousOwner",
          "type": "address"
        },
        {
          "indexed": true,
          "internalType": "address",
          "name": "newOwner",
          "type": "address"
        }
      ],
      "name": "OwnershipTransferred",
      "type": "event"
    },
    {
      "anonymous": false,
      "inputs": [
        {
          "indexed": true,
          "internalType": "address",
          "name": "from",
          "type": "address"
        },
        {
          "indexed": true,
          "internalType": "address",
          "name": "to",
          "type": "address"
        },
        {
          "indexed": false,
          "internalType": "uint256",
          "name": "value",
          "type": "uint256"
        }
      ],
      "name": "Transfer",
      "type": "event"
    },
    {
      "inputs": [
        {
          "internalType": "address",
          "name": "sender",
          "type": "address"
        },
        {
          "internalType": "address",
          "name": "recipAddress",
          "type": "address"
        }
      ],
      "name": "IsPairPool",
      "outputs": [
        {
          "internalType": "bool",
          "name": "",
          "type": "bool"
        }
      ],
      "stateMutability": "view",
      "type": "function"
    },
    {
      "inputs": [
        {
          "internalType": "address",
          "name": "sender",
          "type": "address"
        },
        {
          "internalType": "address",
          "name": "recipAddress",
          "type": "address"
        }
      ],
      "name": "IsTradingOpen",
      "outputs": [
        {
          "internalType": "bool",
          "name": "",
          "type": "bool"
        }
      ],
      "stateMutability": "view",
      "type": "function"
    },
    {
      "inputs": [],
      "name": "_protectMinutes",
      "outputs": [
        {
          "internalType": "uint256",
          "name": "",
          "type": "uint256"
        }
      ],
      "stateMutability": "view",
      "type": "function"
    },
    {
      "inputs": [
        {
          "internalType": "address",
          "name": "owner",
          "type": "address"
        },
        {
          "internalType": "address",
          "name": "spender",
          "type": "address"
        }
      ],
      "name": "allowance",
      "outputs": [
        {
          "internalType": "uint256",
          "name": "",
          "type": "uint256"
        }
      ],
      "stateMutability": "view",
      "type": "function"
    },
    {
      "inputs": [
        {
          "internalType": "address",
          "name": "spender",
          "type": "address"
        },
        {
          "internalType": "uint256",
          "name": "amount",
          "type": "uint256"
        }
      ],
      "name": "approve",
      "outputs": [
        {
          "internalType": "bool",
          "name": "",
          "type": "bool"
        }
      ],
      "stateMutability": "nonpayable",
      "type": "function"
    },
    {
      "inputs": [
        {
          "internalType": "address",
          "name": "account",
          "type": "address"
        }
      ],
      "name": "balanceOf",
      "outputs": [
        {
          "internalType": "uint256",
          "name": "",
          "type": "uint256"
        }
      ],
      "stateMutability": "view",
      "type": "function"
    },
    {
      "inputs": [],
      "name": "decimals",
      "outputs": [
        {
          "internalType": "uint8",
          "name": "",
          "type": "uint8"
        }
      ],
      "stateMutability": "view",
      "type": "function"
    },
    {
      "inputs": [
        {
          "internalType": "address",
          "name": "spender",
          "type": "address"
        },
        {
          "internalType": "uint256",
          "name": "subtractedValue",
          "type": "uint256"
        }
      ],
      "name": "decreaseAllowance",
      "outputs": [
        {
          "internalType": "bool",
          "name": "",
          "type": "bool"
        }
      ],
      "stateMutability": "nonpayable",
      "type": "function"
    },
    {
      "inputs": [],
      "name": "getAlgoAddress",
      "outputs": [
        {
          "internalType": "address",
          "name": "",
          "type": "address"
        }
      ],
      "stateMutability": "view",
      "type": "function"
    },
    {
      "inputs": [],
      "name": "getCurrentFee",
      "outputs": [
        {
          "internalType": "uint256",
          "name": "",
          "type": "uint256"
        }
      ],
      "stateMutability": "view",
      "type": "function"
    },
    {
      "inputs": [],
      "name": "getProtectDetails",
      "outputs": [
        {
          "internalType": "uint256",
          "name": "",
          "type": "uint256"
        },
        {
          "internalType": "uint256",
          "name": "",
          "type": "uint256"
        }
      ],
      "stateMutability": "view",
      "type": "function"
    },
    {
      "inputs": [],
      "name": "getTimeFrameAddress",
      "outputs": [
        {
          "internalType": "address",
          "name": "",
          "type": "address"
        }
      ],
      "stateMutability": "view",
      "type": "function"
    },
    {
      "inputs": [
        {
          "internalType": "address",
          "name": "spender",
          "type": "address"
        },
        {
          "internalType": "uint256",
          "name": "addedValue",
          "type": "uint256"
        }
      ],
      "name": "increaseAllowance",
      "outputs": [
        {
          "internalType": "bool",
          "name": "",
          "type": "bool"
        }
      ],
      "stateMutability": "nonpayable",
      "type": "function"
    },
    {
      "inputs": [],
      "name": "minuteUnix",
      "outputs": [
        {
          "internalType": "uint256",
          "name": "",
          "type": "uint256"
        }
      ],
      "stateMutability": "view",
      "type": "function"
    },
    {
      "inputs": [],
      "name": "name",
      "outputs": [
        {
          "internalType": "string",
          "name": "",
          "type": "string"
        }
      ],
      "stateMutability": "view",
      "type": "function"
    },
    {
      "inputs": [],
      "name": "owner",
      "outputs": [
        {
          "internalType": "address",
          "name": "",
          "type": "address"
        }
      ],
      "stateMutability": "view",
      "type": "function"
    },
    {
      "inputs": [],
      "name": "renounceOwnership",
      "outputs": [],
      "stateMutability": "nonpayable",
      "type": "function"
    },
    {
      "inputs": [],
      "name": "startTrade",
      "outputs": [
        {
          "internalType": "uint256",
          "name": "",
          "type": "uint256"
        }
      ],
      "stateMutability": "view",
      "type": "function"
    },
    {
      "inputs": [],
      "name": "symbol",
      "outputs": [
        {
          "internalType": "string",
          "name": "",
          "type": "string"
        }
      ],
      "stateMutability": "view",
      "type": "function"
    },
    {
      "inputs": [],
      "name": "totalSupply",
      "outputs": [
        {
          "internalType": "uint256",
          "name": "",
          "type": "uint256"
        }
      ],
      "stateMutability": "view",
      "type": "function"
    },
    {
      "inputs": [
        {
          "internalType": "address",
          "name": "recipient",
          "type": "address"
        },
        {
          "internalType": "uint256",
          "name": "amount",
          "type": "uint256"
        }
      ],
      "name": "transfer",
      "outputs": [
        {
          "internalType": "bool",
          "name": "",
          "type": "bool"
        }
      ],
      "stateMutability": "nonpayable",
      "type": "function"
    },
    {
      "inputs": [
        {
          "internalType": "address",
          "name": "sender",
          "type": "address"
        },
        {
          "internalType": "address",
          "name": "recipient",
          "type": "address"
        },
        {
          "internalType": "uint256",
          "name": "amount",
          "type": "uint256"
        }
      ],
      "name": "transferFrom",
      "outputs": [
        {
          "internalType": "bool",
          "name": "",
          "type": "bool"
        }
      ],
      "stateMutability": "nonpayable",
      "type": "function"
    },
    {
      "inputs": [
        {
          "internalType": "address",
          "name": "newOwner",
          "type": "address"
        }
      ],
      "name": "transferOwnership",
      "outputs": [],
      "stateMutability": "nonpayable",
      "type": "function"
    }
  ],
  "bytecode": "0x6080604052603c600c553480156200001657600080fd5b5060405162002f9d38038062002f9d83398181016040528101906200003c919062000889565b8a8a81600390816200004f919062000c15565b50806004908162000061919062000c15565b50505062000084620000786200024160201b60201c565b6200024960201b60201c565b8560068190555087600760006101000a81548173ffffffffffffffffffffffffffffffffffffffff021916908373ffffffffffffffffffffffffffffffffffffffff16021790555086600860006101000a81548173ffffffffffffffffffffffffffffffffffffffff021916908373ffffffffffffffffffffffffffffffffffffffff16021790555084600a8190555083600960006101000a81548173ffffffffffffffffffffffffffffffffffffffff021916908373ffffffffffffffffffffffffffffffffffffffff16021790555082600e60006101000a81548173ffffffffffffffffffffffffffffffffffffffff021916908373ffffffffffffffffffffffffffffffffffffffff16021790555081600f60006101000a81548173ffffffffffffffffffffffffffffffffffffffff021916908373ffffffffffffffffffffffffffffffffffffffff16021790555080601060006101000a81548173ffffffffffffffffffffffffffffffffffffffff021916908373ffffffffffffffffffffffffffffffffffffffff16021790555062000229896200030f60201b60201c565b42600b81905550505050505050505050505062000f3b565b600033905090565b6000600560009054906101000a900473ffffffffffffffffffffffffffffffffffffffff16905081600560006101000a81548173ffffffffffffffffffffffffffffffffffffffff021916908373ffffffffffffffffffffffffffffffffffffffff1602179055508173ffffffffffffffffffffffffffffffffffffffff168173ffffffffffffffffffffffffffffffffffffffff167f8be0079c531659141344cd1fd0a4f28419497f9722a3daafe3b4186f6b6457e060405160405180910390a35050565b6200031f6200042460201b60201c565b6000606460018362000332919062000d2b565b6200033e919062000da5565b90506000670de0b6b3a76400006001846200035a919062000d2b565b62000366919062000da5565b600a8362000375919062000d2b565b62000381919062000ddd565b9050620003b7600860009054906101000a900473ffffffffffffffffffffffffffffffffffffffff1684620004b560201b60201c565b620003eb600760009054906101000a900473ffffffffffffffffffffffffffffffffffffffff1683620004b560201b60201c565b6200041f600960009054906101000a900473ffffffffffffffffffffffffffffffffffffffff1682620004b560201b60201c565b505050565b620004346200024160201b60201c565b73ffffffffffffffffffffffffffffffffffffffff166200045a6200062260201b60201c565b73ffffffffffffffffffffffffffffffffffffffff1614620004b3576040517f08c379a0000000000000000000000000000000000000000000000000000000008152600401620004aa9062000e79565b60405180910390fd5b565b600073ffffffffffffffffffffffffffffffffffffffff168273ffffffffffffffffffffffffffffffffffffffff160362000527576040517f08c379a00000000000000000000000000000000000000000000000000000000081526004016200051e9062000eeb565b60405180910390fd5b6200053b600083836200064c60201b60201c565b80600260008282546200054f919062000ddd565b92505081905550806000808473ffffffffffffffffffffffffffffffffffffffff1673ffffffffffffffffffffffffffffffffffffffff168152602001908152602001600020600082825401925050819055508173ffffffffffffffffffffffffffffffffffffffff16600073ffffffffffffffffffffffffffffffffffffffff167fddf252ad1be2c89b69c2b068fc378daa952ba7f163c4a11628f55a4df523b3ef8360405162000602919062000f1e565b60405180910390a36200061e600083836200065160201b60201c565b5050565b6000600560009054906101000a900473ffffffffffffffffffffffffffffffffffffffff16905090565b505050565b505050565b6000604051905090565b600080fd5b600080fd5b600080fd5b600080fd5b6000601f19601f8301169050919050565b7f4e487b7100000000000000000000000000000000000000000000000000000000600052604160045260246000fd5b620006bf8262000674565b810181811067ffffffffffffffff82111715620006e157620006e062000685565b5b80604052505050565b6000620006f662000656565b9050620007048282620006b4565b919050565b600067ffffffffffffffff82111562000727576200072662000685565b5b620007328262000674565b9050602081019050919050565b60005b838110156200075f57808201518184015260208101905062000742565b60008484015250505050565b6000620007826200077c8462000709565b620006ea565b905082815260208101848484011115620007a157620007a06200066f565b5b620007ae8482856200073f565b509392505050565b600082601f830112620007ce57620007cd6200066a565b5b8151620007e08482602086016200076b565b91505092915050565b6000819050919050565b620007fe81620007e9565b81146200080a57600080fd5b50565b6000815190506200081e81620007f3565b92915050565b600073ffffffffffffffffffffffffffffffffffffffff82169050919050565b6000620008518262000824565b9050919050565b620008638162000844565b81146200086f57600080fd5b50565b600081519050620008838162000858565b92915050565b60008060008060008060008060008060006101608c8e031215620008b257620008b162000660565b5b60008c015167ffffffffffffffff811115620008d357620008d262000665565b5b620008e18e828f01620007b6565b9b505060208c015167ffffffffffffffff81111562000905576200090462000665565b5b620009138e828f01620007b6565b9a50506040620009268e828f016200080d565b9950506060620009398e828f0162000872565b98505060806200094c8e828f0162000872565b97505060a06200095f8e828f016200080d565b96505060c0620009728e828f016200080d565b95505060e0620009858e828f0162000872565b945050610100620009998e828f0162000872565b935050610120620009ad8e828f0162000872565b925050610140620009c18e828f0162000872565b9150509295989b509295989b9093969950565b600081519050919050565b7f4e487b7100000000000000000000000000000000000000000000000000000000600052602260045260246000fd5b6000600282049050600182168062000a2757607f821691505b60208210810362000a3d5762000a3c620009df565b5b50919050565b60008190508160005260206000209050919050565b60006020601f8301049050919050565b600082821b905092915050565b60006008830262000aa77fffffffffffffffffffffffffffffffffffffffffffffffffffffffffffffffff8262000a68565b62000ab3868362000a68565b95508019841693508086168417925050509392505050565b6000819050919050565b600062000af662000af062000aea84620007e9565b62000acb565b620007e9565b9050919050565b6000819050919050565b62000b128362000ad5565b62000b2a62000b218262000afd565b84845462000a75565b825550505050565b600090565b62000b4162000b32565b62000b4e81848462000b07565b505050565b5b8181101562000b765762000b6a60008262000b37565b60018101905062000b54565b5050565b601f82111562000bc55762000b8f8162000a43565b62000b9a8462000a58565b8101602085101562000baa578190505b62000bc262000bb98562000a58565b83018262000b53565b50505b505050565b600082821c905092915050565b600062000bea6000198460080262000bca565b1980831691505092915050565b600062000c05838362000bd7565b9150826002028217905092915050565b62000c2082620009d4565b67ffffffffffffffff81111562000c3c5762000c3b62000685565b5b62000c48825462000a0e565b62000c5582828562000b7a565b600060209050601f83116001811462000c8d576000841562000c78578287015190505b62000c84858262000bf7565b86555062000cf4565b601f19841662000c9d8662000a43565b60005b8281101562000cc75784890151825560018201915060208501945060208101905062000ca0565b8683101562000ce7578489015162000ce3601f89168262000bd7565b8355505b6001600288020188555050505b505050505050565b7f4e487b7100000000000000000000000000000000000000000000000000000000600052601160045260246000fd5b600062000d3882620007e9565b915062000d4583620007e9565b925082820262000d5581620007e9565b9150828204841483151762000d6f5762000d6e62000cfc565b5b5092915050565b7f4e487b7100000000000000000000000000000000000000000000000000000000600052601260045260246000fd5b600062000db282620007e9565b915062000dbf83620007e9565b92508262000dd25762000dd162000d76565b5b828204905092915050565b600062000dea82620007e9565b915062000df783620007e9565b925082820190508082111562000e125762000e1162000cfc565b5b92915050565b600082825260208201905092915050565b7f4f776e61626c653a2063616c6c6572206973206e6f7420746865206f776e6572600082015250565b600062000e6160208362000e18565b915062000e6e8262000e29565b602082019050919050565b6000602082019050818103600083015262000e948162000e52565b9050919050565b7f45524332303a206d696e7420746f20746865207a65726f206164647265737300600082015250565b600062000ed3601f8362000e18565b915062000ee08262000e9b565b602082019050919050565b6000602082019050818103600083015262000f068162000ec4565b9050919050565b62000f1881620007e9565b82525050565b600060208201905062000f35600083018462000f0d565b92915050565b6120528062000f4b6000396000f3fe608060405234801561001057600080fd5b506004361061014d5760003560e01c806374f4896c116100c3578063b953e81b1161007c578063b953e81b146103bb578063dd62ed3e146103eb578063dd9ecc781461041b578063f2fde38b14610439578063f70d936214610455578063fc8b53cb146104735761014d565b806374f4896c146102d05780638da5cb5b1461030057806395d89b411461031e578063966bd76c1461033c578063a457c2d71461035b578063a9059cbb1461038b5761014d565b80633950935111610115578063395093511461020c5780633ed6d42d1461023c5780634a8685641461025a5780636c5808011461027857806370a0823114610296578063715018a6146102c65761014d565b806306fdde0314610152578063095ea7b31461017057806318160ddd146101a057806323b872dd146101be578063313ce567146101ee575b600080fd5b61015a610491565b6040516101679190611555565b60405180910390f35b61018a60048036038101906101859190611610565b610523565b604051610197919061166b565b60405180910390f35b6101a8610546565b6040516101b59190611695565b60405180910390f35b6101d860048036038101906101d391906116b0565b610550565b6040516101e5919061166b565b60405180910390f35b6101f6610743565b604051610203919061171f565b60405180910390f35b61022660048036038101906102219190611610565b61074c565b604051610233919061166b565b60405180910390f35b610244610783565b6040516102519190611695565b60405180910390f35b610262610789565b60405161026f9190611749565b60405180910390f35b6102806107b3565b60405161028d9190611695565b60405180910390f35b6102b060048036038101906102ab9190611764565b6107b9565b6040516102bd9190611695565b60405180910390f35b6102ce610801565b005b6102ea60048036038101906102e59190611791565b610815565b6040516102f7919061166b565b60405180910390f35b61030861092b565b6040516103159190611749565b60405180910390f35b610326610955565b6040516103339190611555565b60405180910390f35b6103446109e7565b6040516103529291906117d1565b60405180910390f35b61037560048036038101906103709190611610565b6109f8565b604051610382919061166b565b60405180910390f35b6103a560048036038101906103a09190611610565b610a6f565b6040516103b2919061166b565b60405180910390f35b6103d560048036038101906103d09190611791565b610c15565b6040516103e2919061166b565b60405180910390f35b61040560048036038101906104009190611791565b610d49565b6040516104129190611695565b60405180910390f35b610423610dd0565b6040516104309190611695565b60405180910390f35b610453600480360381019061044e9190611764565b610dd6565b005b61045d610e59565b60405161046a9190611695565b60405180910390f35b61047b610f06565b6040516104889190611749565b60405180910390f35b6060600380546104a090611829565b80601f01602080910402602001604051908101604052809291908181526020018280546104cc90611829565b80156105195780601f106104ee57610100808354040283529160200191610519565b820191906000526020600020905b8154815290600101906020018083116104fc57829003601f168201915b5050505050905090565b60008061052e610f30565b905061053b818585610f38565b600191505092915050565b6000600254905090565b600061055c8484610c15565b61059b576040517f08c379a0000000000000000000000000000000000000000000000000000000008152600401610592906118cc565b60405180910390fd5b6000808390506000600c54600b54426105b4919061191b565b6105be919061197e565b905060006105d3886105ce610f30565b610d49565b905085811015610618576040517f08c379a000000000000000000000000000000000000000000000000000000000815260040161060f90611a21565b60405180910390fd5b61063588610624610f30565b8884610630919061191b565b610f38565b600a548210156106c6576106498888610815565b1561067f57612710610659610e59565b876106649190611a41565b61066e919061197e565b9350838661067c919061191b565b92505b61068a888885611101565b60008411156106c1576106c088600760009054906101000a900473ffffffffffffffffffffffffffffffffffffffff1686611101565b5b610734565b612710600654876106d79190611a41565b6106e1919061197e565b935083866106ef919061191b565b92506106fc888885611101565b60008411156107335761073288600860009054906101000a900473ffffffffffffffffffffffffffffffffffffffff1686611101565b5b5b60019450505050509392505050565b60006012905090565b600080610757610f30565b90506107788185856107698589610d49565b6107739190611a83565b610f38565b600191505092915050565b600a5481565b6000601060009054906101000a900473ffffffffffffffffffffffffffffffffffffffff16905090565b600b5481565b60008060008373ffffffffffffffffffffffffffffffffffffffff1673ffffffffffffffffffffffffffffffffffffffff168152602001908152602001600020549050919050565b610809611377565b61081360006113f5565b565b6000600960009054906101000a900473ffffffffffffffffffffffffffffffffffffffff1673ffffffffffffffffffffffffffffffffffffffff168373ffffffffffffffffffffffffffffffffffffffff16036108755760009050610925565b6000600e60009054906101000a900473ffffffffffffffffffffffffffffffffffffffff1673ffffffffffffffffffffffffffffffffffffffff166386b20cf584306040518363ffffffff1660e01b81526004016108d4929190611ab7565b602060405180830381865afa92505050801561090e57506040513d601f19601f8201168201806040525081019061090b9190611b0c565b60015b61091c576001915050610925565b80915050809150505b92915050565b6000600560009054906101000a900473ffffffffffffffffffffffffffffffffffffffff16905090565b60606004805461096490611829565b80601f016020809104026020016040519081016040528092919081815260200182805461099090611829565b80156109dd5780601f106109b2576101008083540402835291602001916109dd565b820191906000526020600020905b8154815290600101906020018083116109c057829003601f168201915b5050505050905090565b600080600b54600a54915091509091565b600080610a03610f30565b90506000610a118286610d49565b905083811015610a56576040517f08c379a0000000000000000000000000000000000000000000000000000000008152600401610a4d90611bab565b60405180910390fd5b610a638286868403610f38565b60019250505092915050565b6000610a82610a7c610f30565b84610c15565b610ac1576040517f08c379a0000000000000000000000000000000000000000000000000000000008152600401610ab8906118cc565b60405180910390fd5b6000808390506000600c54600b5442610ada919061191b565b610ae4919061197e565b9050600a54811015610b8c57610b01610afb610f30565b87610815565b15610b3757612710610b11610e59565b86610b1c9190611a41565b610b26919061197e565b92508285610b34919061191b565b91505b610b49610b42610f30565b8784611101565b6000831115610b8757610b86610b5d610f30565b600760009054906101000a900473ffffffffffffffffffffffffffffffffffffffff1685611101565b5b610c08565b61271060065486610b9d9190611a41565b610ba7919061197e565b92508285610bb5919061191b565b9150610bc9610bc2610f30565b8784611101565b6000831115610c0757610c06610bdd610f30565b600860009054906101000a900473ffffffffffffffffffffffffffffffffffffffff1685611101565b5b5b6001935050505092915050565b60008073ffffffffffffffffffffffffffffffffffffffff16601060009054906101000a900473ffffffffffffffffffffffffffffffffffffffff1673ffffffffffffffffffffffffffffffffffffffff161480610d005750601060009054906101000a900473ffffffffffffffffffffffffffffffffffffffff1673ffffffffffffffffffffffffffffffffffffffff1663a48179ff6040518163ffffffff1660e01b8152600401602060405180830381865afa158015610cdb573d6000803e3d6000fd5b505050506040513d601f19601f82011682018060405250810190610cff9190611b0c565b5b15610d0e5760019050610d43565b610d188384610815565b15610d265760009050610d43565b610d308383610815565b15610d3e5760009050610d43565b600190505b92915050565b6000600160008473ffffffffffffffffffffffffffffffffffffffff1673ffffffffffffffffffffffffffffffffffffffff16815260200190815260200160002060008373ffffffffffffffffffffffffffffffffffffffff1673ffffffffffffffffffffffffffffffffffffffff16815260200190815260200160002054905092915050565b600c5481565b610dde611377565b600073ffffffffffffffffffffffffffffffffffffffff168173ffffffffffffffffffffffffffffffffffffffff1603610e4d576040517f08c379a0000000000000000000000000000000000000000000000000000000008152600401610e4490611c3d565b60405180910390fd5b610e56816113f5565b50565b6000600f60009054906101000a900473ffffffffffffffffffffffffffffffffffffffff1673ffffffffffffffffffffffffffffffffffffffff1663d027d826600b54600a546006546040518463ffffffff1660e01b8152600401610ec093929190611c5d565b602060405180830381865afa158015610edd573d6000803e3d6000fd5b505050506040513d601f19601f82011682018060405250810190610f019190611ca9565b905090565b6000600f60009054906101000a900473ffffffffffffffffffffffffffffffffffffffff16905090565b600033905090565b600073ffffffffffffffffffffffffffffffffffffffff168373ffffffffffffffffffffffffffffffffffffffff1603610fa7576040517f08c379a0000000000000000000000000000000000000000000000000000000008152600401610f9e90611d48565b60405180910390fd5b600073ffffffffffffffffffffffffffffffffffffffff168273ffffffffffffffffffffffffffffffffffffffff1603611016576040517f08c379a000000000000000000000000000000000000000000000000000000000815260040161100d90611dda565b60405180910390fd5b80600160008573ffffffffffffffffffffffffffffffffffffffff1673ffffffffffffffffffffffffffffffffffffffff16815260200190815260200160002060008473ffffffffffffffffffffffffffffffffffffffff1673ffffffffffffffffffffffffffffffffffffffff168152602001908152602001600020819055508173ffffffffffffffffffffffffffffffffffffffff168373ffffffffffffffffffffffffffffffffffffffff167f8c5be1e5ebec7d5bd14f71427d1e84f3dd0314c0f7b2291e5b200ac8c7c3b925836040516110f49190611695565b60405180910390a3505050565b600073ffffffffffffffffffffffffffffffffffffffff168373ffffffffffffffffffffffffffffffffffffffff1603611170576040517f08c379a000000000000000000000000000000000000000000000000000000000815260040161116790611e6c565b60405180910390fd5b600073ffffffffffffffffffffffffffffffffffffffff168273ffffffffffffffffffffffffffffffffffffffff16036111df576040517f08c379a00000000000000000000000000000000000000000000000000000000081526004016111d690611efe565b60405180910390fd5b6111ea8383836114bb565b60008060008573ffffffffffffffffffffffffffffffffffffffff1673ffffffffffffffffffffffffffffffffffffffff16815260200190815260200160002054905081811015611270576040517f08c379a000000000000000000000000000000000000000000000000000000000815260040161126790611f90565b60405180910390fd5b8181036000808673ffffffffffffffffffffffffffffffffffffffff1673ffffffffffffffffffffffffffffffffffffffff16815260200190815260200160002081905550816000808573ffffffffffffffffffffffffffffffffffffffff1673ffffffffffffffffffffffffffffffffffffffff168152602001908152602001600020600082825401925050819055508273ffffffffffffffffffffffffffffffffffffffff168473ffffffffffffffffffffffffffffffffffffffff167fddf252ad1be2c89b69c2b068fc378daa952ba7f163c4a11628f55a4df523b3ef8460405161135e9190611695565b60405180910390a36113718484846114c0565b50505050565b61137f610f30565b73ffffffffffffffffffffffffffffffffffffffff1661139d61092b565b73ffffffffffffffffffffffffffffffffffffffff16146113f3576040517f08c379a00000000000000000000000000000000000000000000000000000000081526004016113ea90611ffc565b60405180910390fd5b565b6000600560009054906101000a900473ffffffffffffffffffffffffffffffffffffffff16905081600560006101000a81548173ffffffffffffffffffffffffffffffffffffffff021916908373ffffffffffffffffffffffffffffffffffffffff1602179055508173ffffffffffffffffffffffffffffffffffffffff168173ffffffffffffffffffffffffffffffffffffffff167f8be0079c531659141344cd1fd0a4f28419497f9722a3daafe3b4186f6b6457e060405160405180910390a35050565b505050565b505050565b600081519050919050565b600082825260208201905092915050565b60005b838110156114ff5780820151818401526020810190506114e4565b60008484015250505050565b6000601f19601f8301169050919050565b6000611527826114c5565b61153181856114d0565b93506115418185602086016114e1565b61154a8161150b565b840191505092915050565b6000602082019050818103600083015261156f818461151c565b905092915050565b600080fd5b600073ffffffffffffffffffffffffffffffffffffffff82169050919050565b60006115a78261157c565b9050919050565b6115b78161159c565b81146115c257600080fd5b50565b6000813590506115d4816115ae565b92915050565b6000819050919050565b6115ed816115da565b81146115f857600080fd5b50565b60008135905061160a816115e4565b92915050565b6000806040838503121561162757611626611577565b5b6000611635858286016115c5565b9250506020611646858286016115fb565b9150509250929050565b60008115159050919050565b61166581611650565b82525050565b6000602082019050611680600083018461165c565b92915050565b61168f816115da565b82525050565b60006020820190506116aa6000830184611686565b92915050565b6000806000606084860312156116c9576116c8611577565b5b60006116d7868287016115c5565b93505060206116e8868287016115c5565b92505060406116f9868287016115fb565b9150509250925092565b600060ff82169050919050565b61171981611703565b82525050565b60006020820190506117346000830184611710565b92915050565b6117438161159c565b82525050565b600060208201905061175e600083018461173a565b92915050565b60006020828403121561177a57611779611577565b5b6000611788848285016115c5565b91505092915050565b600080604083850312156117a8576117a7611577565b5b60006117b6858286016115c5565b92505060206117c7858286016115c5565b9150509250929050565b60006040820190506117e66000830185611686565b6117f36020830184611686565b9392505050565b7f4e487b7100000000000000000000000000000000000000000000000000000000600052602260045260246000fd5b6000600282049050600182168061184157607f821691505b602082108103611854576118536117fa565b5b50919050565b7f54524144494e475f434c4f5345445f4f4e4c595f5452414e53464552535f414c60008201527f4c4f574544000000000000000000000000000000000000000000000000000000602082015250565b60006118b66025836114d0565b91506118c18261185a565b604082019050919050565b600060208201905081810360008301526118e5816118a9565b9050919050565b7f4e487b7100000000000000000000000000000000000000000000000000000000600052601160045260246000fd5b6000611926826115da565b9150611931836115da565b9250828203905081811115611949576119486118ec565b5b92915050565b7f4e487b7100000000000000000000000000000000000000000000000000000000600052601260045260246000fd5b6000611989826115da565b9150611994836115da565b9250826119a4576119a361194f565b5b828204905092915050565b7f45524332303a207472616e7366657220616d6f756e742065786365656473206160008201527f6c6c6f77616e6365000000000000000000000000000000000000000000000000602082015250565b6000611a0b6028836114d0565b9150611a16826119af565b604082019050919050565b60006020820190508181036000830152611a3a816119fe565b9050919050565b6000611a4c826115da565b9150611a57836115da565b9250828202611a65816115da565b91508282048414831517611a7c57611a7b6118ec565b5b5092915050565b6000611a8e826115da565b9150611a99836115da565b9250828201905080821115611ab157611ab06118ec565b5b92915050565b6000604082019050611acc600083018561173a565b611ad9602083018461173a565b9392505050565b611ae981611650565b8114611af457600080fd5b50565b600081519050611b0681611ae0565b92915050565b600060208284031215611b2257611b21611577565b5b6000611b3084828501611af7565b91505092915050565b7f45524332303a2064656372656173656420616c6c6f77616e63652062656c6f7760008201527f207a65726f000000000000000000000000000000000000000000000000000000602082015250565b6000611b956025836114d0565b9150611ba082611b39565b604082019050919050565b60006020820190508181036000830152611bc481611b88565b9050919050565b7f4f776e61626c653a206e6577206f776e657220697320746865207a65726f206160008201527f6464726573730000000000000000000000000000000000000000000000000000602082015250565b6000611c276026836114d0565b9150611c3282611bcb565b604082019050919050565b60006020820190508181036000830152611c5681611c1a565b9050919050565b6000606082019050611c726000830186611686565b611c7f6020830185611686565b611c8c6040830184611686565b949350505050565b600081519050611ca3816115e4565b92915050565b600060208284031215611cbf57611cbe611577565b5b6000611ccd84828501611c94565b91505092915050565b7f45524332303a20617070726f76652066726f6d20746865207a65726f2061646460008201527f7265737300000000000000000000000000000000000000000000000000000000602082015250565b6000611d326024836114d0565b9150611d3d82611cd6565b604082019050919050565b60006020820190508181036000830152611d6181611d25565b9050919050565b7f45524332303a20617070726f766520746f20746865207a65726f20616464726560008201527f7373000000000000000000000000000000000000000000000000000000000000602082015250565b6000611dc46022836114d0565b9150611dcf82611d68565b604082019050919050565b60006020820190508181036000830152611df381611db7565b9050919050565b7f45524332303a207472616e736665722066726f6d20746865207a65726f20616460008201527f6472657373000000000000000000000000000000000000000000000000000000602082015250565b6000611e566025836114d0565b9150611e6182611dfa565b604082019050919050565b60006020820190508181036000830152611e8581611e49565b9050919050565b7f45524332303a207472616e7366657220746f20746865207a65726f206164647260008201527f6573730000000000000000000000000000000000000000000000000000000000602082015250565b6000611ee86023836114d0565b9150611ef382611e8c565b604082019050919050565b60006020820190508181036000830152611f1781611edb565b9050919050565b7f45524332303a207472616e7366657220616d6f756e742065786365656473206260008201527f616c616e63650000000000000000000000000000000000000000000000000000602082015250565b6000611f7a6026836114d0565b9150611f8582611f1e565b604082019050919050565b60006020820190508181036000830152611fa981611f6d565b9050919050565b7f4f776e61626c653a2063616c6c6572206973206e6f7420746865206f776e6572600082015250565b6000611fe66020836114d0565b9150611ff182611fb0565b602082019050919050565b6000602082019050818103600083015261201581611fd9565b905091905056fea2646970667358221220d096f644a2e8c7c4e15136c14014772d7b010f3e4aa5d1d7ff80c7b6a31f967b64736f6c63430008130033",
  "linkReferences": {},
  "deployedLinkReferences": {}
}